:100000000C942A000C9447000C9447000C94470071
:100010000C9447000C9447000C9447000C94470044
:100020000C9447000C9447000C9447000C94470034
:100030000C9447000C9447000C9447000C94470024
:100040000C9447000C9447000C9447000C94470014
:100050000C94470011241FBECFE5D4E0DEBFCDBF16
:1000600010E0A0E6B0E0ECE7F6E002C005900D92EB
:10007000A038B107D9F720E0A0E8B0E001C01D9298
:10008000A638B207E1F70E9434010C943C030C94AB
:10009000000082E087B983E886B9089597B1937E1E
:1000A00097B997B1892B87B9369A349BFECF349A8A
:1000B00084B195B1089585BB94989598969A00005F
:1000C00096988DEE92E00197F1F700C00000089538
:1000D00085BB949A9598969A0000969889EF90E03F
:1000E0000197F1F700C0000008958FEF81BB84BB3A
:1000F00087E893E10197F1F700C0000088E30E94D0
:100100005B008CE00E945B0080E80E945B0081E065
:100110000E945B008CE00C945B00CF93DF93EC01BA
:100120008991882319F00E946800FACFDF91CF915E
:10013000089581E00E945B0080E80C945B00CF93FF
:10014000DF93CDB7DEB760970FB6F894DEBF0FBE72
:10015000CDBF4AE0BE016F5F7F4F90E00E94070372
:10016000CE0101960E948D0060960FB6F894DEBF16
:100170000FBECDBFDF91CF910895CF92DF92EF9266
:10018000FF9280E690E00E948D0080EC0E945B0070
:1001900081E790E00E948D008CEC0E945B0083E080
:1001A0000E944E009093850080938400809184008B
:1001B0009091850025E0289FB001299F700D1124A2
:1001C000072E000C880B990B0E94E50120E030EC13
:1001D0004FE754E40E94420120E030E048EC52E452
:1001E0000E949A0260938000709381008093820045
:1001F000909383000E94B401862F0E949F00C090BC
:100200008000D0908100E0908200F090830020E098
:1002100030E048EC52E4C701B6010E94950218167E
:1002200014F48FEC17C020E030E040E251E4C70145
:10023000B6010E94950287FF0AC020E030E048EC3A
:1002400052E4C701B6010E943D01181614F08EEC6D
:1002500001C08CEC0E945B008EE790E0FF90EF9075
:10026000DF90CF900C948D000E9475000E94490091
:100270000E9499000E94BD00FDCF0E94200208F458
:1002800081E008950E9456010C945B020E94540282
:1002900058F00E944D0240F029F45F3F29F00C9481
:1002A000440251110C948F020C944A020E946C0279
:1002B00068F39923B1F3552391F3951B550BBB2795
:1002C000AA2762177307840738F09F5F5F4F220FDA
:1002D000331F441FAA1FA9F335D00E2E3AF0E0E8D1
:1002E00032D091505040E695001CCAF72BD0FE2F1B
:1002F00029D0660F771F881FBB1F261737074807AF
:10030000AB07B0E809F0BB0B802DBF01FF27935866
:100310005F4F3AF09E3F510578F00C9444020C94E4
:100320008F025F3FE4F3983ED4F386957795679507
:10033000B795F7959F5FC9F7880F911D969587959B
:1003400097F90895E1E0660F771F881FBB1F6217BA
:1003500073078407BA0720F0621B730B840BBA0B78
:10036000EE1F88F7E09508950E94740288F09F5769
:1003700098F0B92F9927B751B0F0E1F0660F771FC9
:10038000881F991F1AF0BA95C9F714C0B13091F0BF
:100390000E948E02B1E008950C948E02672F782F90
:1003A0008827B85F39F0B93FCCF386957795679584
:1003B000B395D9F73EF490958095709561957F4FF0
:1003C0008F4F9F4F0895E89409C097FB3EF4909596
:1003D0008095709561957F4F8F4F9F4F9923A9F01E
:1003E000F92F96E9BB279395F695879577956795AD
:1003F000B795F111F8CFFAF4BB0F11F460FF1BC0F1
:100400006F5F7F4F8F4F9F4F16C0882311F096E983
:1004100011C0772321F09EE8872F762F05C0662331
:1004200071F096E8862F70E060E02AF09A95660FEA
:10043000771F881FDAF7880F9695879597F90895A3
:10044000990F0008550FAA0BE0E8FEEF16161706E5
:10045000E807F907C0F012161306E407F50798F04D
:10046000621B730B840B950B39F40A2661F0232B66
:10047000242B252B21F408950A2609F4A140A695E2
:100480008FEF811D811D089597F99F6780E870E0C7
:1004900060E008959FEF80EC089500240A941616FA
:1004A000170618060906089500240A941216130662
:1004B000140605060895092E0394000C11F48823F0
:1004C00052F0BB0F40F4BF2B11F460FF04C06F5F0C
:1004D0007F4F8F4F9F4F089557FD9058440F551FE2
:1004E00059F05F3F71F04795880F97FB991F61F0B6
:1004F0009F3F79F087950895121613061406551F2D
:10050000F2CF4695F1DF08C0161617061806991F98
:10051000F1CF86957105610508940895E894BB278D
:1005200066277727CB0197F908950E94200208F4E7
:100530008FEF08950E94AD020C945B020E944D0261
:1005400038F00E94540220F0952311F00C944402DC
:100550000C944A0211240C948F020E946C0270F3D6
:10056000959FC1F3950F50E0551F629FF001729F58
:10057000BB27F00DB11D639FAA27F00DB11DAA1F67
:10058000649F6627B00DA11D661F829F2227B00DB4
:10059000A11D621F739FB00DA11D621F839FA00D3F
:1005A000611D221F749F3327A00D611D231F849F8F
:1005B000600D211D822F762F6A2F11249F575040E6
:1005C0009AF0F1F088234AF0EE0FFF1FBB1F661F61
:1005D000771F881F91505040A9F79E3F510580F02A
:1005E0000C9444020C948F025F3FE4F3983ED4F3E2
:1005F000869577956795B795F795E7959F5FC1F7CE
:10060000FE2B880F911D9695879597F90895BB2726
:100610004A3031F4992322F4BDE2909581959F4FA1
:100620000C941303BB27FB015527AA27880F991F9A
:10063000AA1FA41710F0A41B83955051B9F7A05D11
:10064000AA3308F0A95DA193009779F7B111B1938E
:100650001192CB010C942C03DC01FC01672F7191EA
:100660007723E1F7329704C07C916D937083629198
:0C067000AE17BF07C8F30895F894FFCF41
:10067C00206F7574646F6F72436C696D6174652063
:10068C000054656D70657261747572653D00430050
:00000001FF
