S00B00004144432E7372656351
S11300000C942A000C9447000C9447000C9447006D
S11300100C9447000C9447000C9447000C94470040
S11300200C9447000C9447000C9447000C94470030
S11300300C9447000C9447000C9447000C94470020
S11300400C9447000C9447000C9447000C94470010
S11300500C94470011241FBECFE5D4E0DEBFCDBF12
S113006010E0A0E6B0E0E2E0F7E002C005900D92F7
S1130070A038B107D9F720E0A0E8B0E001C01D9294
S1130080A638B207E1F70E9477010C947F030C9421
S1130090000082E087B983E886B9089597B1937E1A
S11300A097B997B1892B87B986B1806486B9349B97
S11300B0FECF86B1806186B984B195B1089585BBC0
S11300C082B38F7E82BB82B38F7D82BB82B3806416
S11300D082BB000082B38F7B82BB8DEE92E00197DE
S11300E0F1F700C00000089585BB82B3806182BB34
S11300F082B38F7D82BB82B3806482BB000082B3F3
S11301008F7B82BB89EF90E00197F1F700C000007C
S113011008958FEF81BB84BB87E893E10197F1F7E2
S113012000C0000088E30E945F0080E80E945F0036
S113013081E00E945F008CE00E945F0008950F93AD
S11301401F93CF93DF938C01C0E0D0E003C00E94E3
S113015074002196F801EC0FFD1F80818111F7CF07
S1130160DF91CF911F910F91089581E00E945F006C
S113017080E80E945F000895CF93DF93CDB7DEB788
S113018060970FB6F894DEBF0FBECDBF4AE0BE0144
S11301906F5F7F4F90E00E944A03CE0101960E9458
S11301A09F0060960FB6F894DEBF0FBECDBFDF91FF
S11301B0CF910895811108C0603130F4862F8F707B
S11301C080680E945F000895813039F4603128F41A
S11301D0862F8F70806C0E945F000895CF92DF920B
S11301E0EF92FF9280E690E00E949F0080EC0E94D4
S11301F05F0081E790E00E949F006CE081E00E9434
S1130200DA0083E00E944E0090938500809384007E
S11302106091840070918500CB01880F991F880F2D
S1130220991F680F791F072E000C880B990B0E94E9
S1130230280220E030EC4FE754E40E94850120E0DE
S113024030E048EC52E40E94DD0260938000709339
S1130250810080938200909383000E94F701862F8F
S11302600E94BC00C0908000D0908100E090820089
S1130270F090830020E030E048EC52E4C701B6017E
S11302800E94D80218164CF46FE081E00E94DA0054
S11302908EE790E00E949F0025C020E030E040E21D
S11302A051E4C701B6010E94D802882354F420E027
S11302B030E048EC52E4C701B6010E9480011816F0
S11302C04CF06EE081E00E94DA008EE790E00E943C
S11302D09F0008C06CE081E00E94DA008EE790E0A5
S11302E00E949F00FF90EF90DF90CF9008950E94AE
S11302F089000E9449000E94B5000E94EE00FDCFD3
S11303000E94630208F481E008950E9499010C940C
S11303109E020E94970258F00E94900240F029F435
S11303205F3F29F00C94870251110C94D2020C9473
S11303308D020E94AF0268F39923B1F3552391F320
S1130340951B550BBB27AA2762177307840738F040
S11303509F5F5F4F220F331F441FAA1FA9F335D09D
S11303600E2E3AF0E0E832D091505040E695001C51
S1130370CAF72BD0FE2F29D0660F771F881FBB1F0B
S1130380261737074807AB07B0E809F0BB0B802DE9
S1130390BF01FF2793585F4F3AF09E3F510578F015
S11303A00C9487020C94D2025F3FE4F3983ED4F39A
S11303B0869577956795B795F7959F5FC9F7880FE9
S11303C0911D9695879597F90895E1E0660F771F3B
S11303D0881FBB1F621773078407BA0720F0621BCC
S11303E0730B840BBA0BEE1F88F7E09508950E94F7
S11303F0B70288F09F5798F0B92F9927B751B0F0FA
S1130400E1F0660F771F881F991F1AF0BA95C9F794
S113041014C0B13091F00E94D102B1E008950C945F
S1130420D102672F782F8827B85F39F0B93FCCF312
S1130430869577956795B395D9F73EF49095809511
S1130440709561957F4F8F4F9F4F0895E89409C031
S113045097FB3EF490958095709561957F4F8F4FF3
S11304609F4F9923A9F0F92F96E9BB279395F69509
S1130470879577956795B795F111F8CFFAF4BB0F87
S113048011F460FF1BC06F5F7F4F8F4F9F4F16C0EB
S1130490882311F096E911C0772321F09EE8872F75
S11304A0762F05C0662371F096E8862F70E060E031
S11304B02AF09A95660F771F881FDAF7880F9695AA
S11304C0879597F90895990F0008550FAA0BE0E84E
S11304D0FEEF16161706E807F907C0F01216130602
S11304E0E407F50798F0621B730B840B950B39F442
S11304F00A2661F0232B242B252B21F408950A26A8
S113050009F4A140A6958FEF811D811D089597F9E7
S11305109F6780E870E060E008959FEF80EC0895A5
S113052000240A94161617061806090608950024CE
S11305300A9412161306140605060895092E039448
S1130540000C11F4882352F0BB0F40F4BF2B11F4BC
S113055060FF04C06F5F7F4F8F4F9F4F089557FD1B
S11305609058440F551F59F05F3F71F04795880F1D
S113057097FB991F61F09F3F79F0879508951216B4
S113058013061406551FF2CF4695F1DF08C0161660
S113059017061806991FF1CF869571056105089411
S11305A00895E894BB2766277727CB0197F9089528
S11305B00E94630208F48FEF08950E94F0020C94E5
S11305C09E020E94900238F00E94970220F0952328
S11305D011F00C9487020C948D0211240C94D20215
S11305E00E94AF0270F3959FC1F3950F50E0551F21
S11305F0629FF001729FBB27F00DB11D639FAA2774
S1130600F00DB11DAA1F649F6627B00DA11D661FC2
S1130610829F2227B00DA11D621F739FB00DA11DE3
S1130620621F839FA00D611D221F749F3327A00D9D
S1130630611D231F849F600D211D822F762F6A2F39
S113064011249F5750409AF0F1F088234AF0EE0F9E
S1130650FF1FBB1F661F771F881F91505040A9F7CB
S11306609E3F510580F00C9487020C94D2025F3FA8
S1130670E4F3983ED4F3869577956795B795F79507
S1130680E7959F5FC1F7FE2B880F911D969587957F
S113069097F90895BB274A3031F4992322F4BDE237
S11306A0909581959F4F0C945603BB27FB015527CA
S11306B0AA27880F991FAA1FA41710F0A41B8395BB
S11306C05051B9F7A05DAA3308F0A95DA193009732
S11306D079F7B111B1931192CB010C946F03DC0142
S11306E0FC01672F71917723E1F7329704C07C9165
S11306F06D9370836291AE17BF07C8F30895F894A1
S1050700FFCF25
S1130702206F7574646F6F72436C696D61746520D8
S11307120054656D70657261747572653D004300C5
S9030000FC
